:020000040800F2
:1000000000500020011A0008451A0008451A00088F
:10001000451A0008451A0008451A000800000000AB
:10002000000000000000000000000000451A000869
:10003000451A000800000000451A0008451A00088B
:10004000451A0008451A0008451A0008451A000814
:10005000451A0008451A0008451A0008451A000804
:10006000451A0008451A0008451A0008451A0008F4
:10007000451A0008451A0008451A0008451A0008E4
:10008000451A0008451A0008451A0008451A0008D4
:10009000451A0008451A0008451A0008451A0008C4
:1000A000451A0008451A0008451A0008451A0008B4
:1000B000451A0008451A000829610008451A000879
:1000C000451A0008451A0008451A0008451A000894
:1000D000451A0008C15E0008451A0008451A0008C4
:1000E000451A0008451A0008451A000800000000DB
:1000F0000000000000000000000000000000000000
:1001000000000000000000005FF808F110B5054C89
:10011000237833B9044B13B10448AFF300800123B3
:10012000237010BD60040020000000006C65000812
:10013000084B10B51BB108490848AFF300800848C8
:10014000036803B910BD074B002BFBD0BDE810407E
:10015000184700BF00000000640400206C65000820
:100160005C0400200000000080B582B000AF786021
:100170007B682F4A934208D10121042000F0F2FD50
:100180000021042000F0EEFD4EE07B68294A9342F6
:1001900008D10121082000F0E5FD0021082000F031
:1001A000E1FD41E07B68244A934208D101211020FF
:1001B00000F0D8FD0021102000F0D4FD34E07B6871
:1001C0001E4A934208D10121202000F0CBFD0021DE
:1001D000202000F0C7FD27E07B68194A934208D130
:1001E0000121402000F0BEFD0021402000F0BAFDBA
:1001F0001AE07B68134A934208D10121802000F065
:10020000B1FD0021802000F0ADFD0DE07B680E4ABD
:10021000934209D101214FF4807000F0A3FD002129
:100220004FF4807000F09EFD00BF0837BD4680BDD2
:1002300000080140000C0140001001400014014082
:1002400000180140001C01400020014080B500AFB3
:100250000121012000F086FD0021012000F082FD37
:1002600000BF80BD80B489B000AF786039600023E2
:10027000FB6100233B610023BB610023FB60002383
:100280007B610023BB603B68DB7803F00F03FB61FD
:100290003B68DB7803F01003002B05D03B689B78AC
:1002A0001A46FB691343FB613B681B88DBB2002BDA
:1002B00044D07B681B687B610023BB6138E001226E
:1002C000BB6902FA03F3FB603B681B881A46FB68B4
:1002D00013403B613A69FB689A4226D1BB699B0097
:1002E000FB600F22FB6802FA03F3BB60BB68DB43D1
:1002F0007A6913407B61FA69FB6802FA03F37A6951
:1003000013437B613B68DB78282B05D10122BB6955
:100310009A407B685A6108E03B68DB78482B04D13F
:100320000122BB699A407B681A61BB690133BB61DA
:10033000BB69072BC3D97B687A691A603B681B8845
:10034000FF2B46D97B685B687B610023BB613AE089
:10035000BB690833012202FA03F3FB603B681B8888
:100360001A46FB6813403B613A69FB689A4227D101
:10037000BB699B00FB600F22FB6802FA03F3BB60C2
:10038000BB68DB437A6913407B61FA69FB6802FA58
:1003900003F37A6913437B613B68DB78282B05D133
:1003A000BB69083301229A407B685A613B68DB785D
:1003B000482B05D1BB69083301229A407B681A613A
:1003C000BB690133BB61BB69072BC1D97B687A6903
:1003D0005A6000BF2437BD4680BC704780B483B0EC
:1003E00000AF78607B684FF6FF721A807B6802224C
:1003F0009A707B680422DA7000BF0C37BD4680BC5F
:10040000704700BF80B485B000AF78600B467B803A
:100410000023FB737B689A687B881340002B02D013
:100420000123FB7301E00023FB73FB7B18461437A9
:10043000BD4680BC704700BF80B483B000AF786019
:100440007B689B689BB218460C37BD4680BC7047E2
:1004500080B485B000AF78600B467B800023FB73CF
:100460007B68DA687B881340002B02D00123FB7382
:1004700001E00023FB73FB7B18461437BD4680BCAC
:10048000704700BF80B483B000AF78607B68DB68E2
:100490009BB218460C37BD4680BC704780B483B011
:1004A00000AF78600B467B807A887B681A6100BF5A
:1004B0000C37BD4680BC704780B483B000AF786015
:1004C0000B467B807A887B685A6100BF0C37BD463B
:1004D00080BC704780B483B000AF78600B467B80EF
:1004E00013467B707B78002B03D07A887B681A6177
:1004F00002E07A887B685A6100BF0C37BD4680BC39
:10050000704700BF80B483B000AF78600B467B803B
:100510007A887B68DA6000BF0C37BD4680BC7047C4
:1005200080B485B000AF78600B467B804FF4803399
:10053000FB607B88FA681343FB607B68FA689A610A
:100540007A887B689A617B68FA689A617B689B69A4
:10055000FB607B689B69FB6000BF1437BD4680BCB5
:10056000704700BF80B485B000AF03460A46FB71F8
:100570001346BB710023FB600C4B1B68FB60FA68E1
:100580004FF680731340FB60FB791B01FA6813433D
:10059000FB60BB79FA681343FB60044AFB68136095
:1005A00000BF1437BD4680BC704700BF000001404B
:1005B00080B483B000AF0346FB71044AFB7913603B
:1005C00000BF0C37BD4680BC704700BF1C002042F6
:1005D00080B487B000AF78600B46FB7000233B61AE
:1005E0000023FB6000237B610023BB607B68002B42
:1005F00003DA2E4BDB697B6102E02C4B5B687B618D
:100600007B681B0C03F00F03BB607B689BB23B61F4
:100610007B6803F44013B3F5401F0AD17B6923F0D4
:1006200070637B61214A214B5B6823F070635360E8
:1006300021E07B6803F48013002B0ED00322BB68FB
:1006400002FA03F3FB60FB68DB437A6913407B61CA
:100650007B6943F070637B610DE07B685B0D1B0180
:100660003A6902FA03F3DB437A6913407B617B69E1
:1006700043F070637B61FB78002B08D07B685B0DD7
:100680001B013A6902FA03F37A6913437B617B68C1
:10069000002B03DA054A7B69D36102E0034A7B69D8
:1006A000536000BF1C37BD4680BC7047000001404E
:1006B00090B484B000AF03460A46FB711346BB7189
:1006C0000023FB60BB7903F003039B000F2202FAB7
:1006D00003F3FB601649BB799B08DBB21846144A4A
:1006E000BB799B08DBB2023352F82320FB68DB4363
:1006F0001A40831C41F823200D48BB799B08DBB2CC
:100700001C460B4ABB799B08DBB2023352F823200C
:10071000F979BB7903F003039B0001FA03F31A4351
:10072000A31C40F8232000BF1037BD4690BC704783
:100730000000014080B483B000AF7860034A7B685A
:10074000136000BF0C37BD4680BC7047DC00204200
:1007500080B400AF134A134B1B6843F001031360CE
:100760001049104B5A68104B13404B600D4A0D4B0B
:100770001B6823F0847323F480331360094A094B08
:100780001B6823F480231360064A064B5B6823F43E
:10079000FE035360034B4FF41F029A6000BFBD4637
:1007A00080BC7047001002400000FFF880B483B0A6
:1007B00000AF7860134A134B1B6823F48033136037
:1007C000104A104B1B6823F4802313607B68B3F539
:1007D000803F03D0B3F5802F07D00DE0094A094BC5
:1007E0001B6843F48033136006E0064A054B1B6820
:1007F00043F4A023136000BF00BF0C37BD4680BC8C
:10080000704700BF0010024080B582B000AF0023E7
:100810003B600023FB710023BB71312000F00EFB15
:100820000346BB713B6801333B603B68B3F5A06F87
:1008300002D0BB79002BF0D0312000F0FFFA034644
:10084000002B02D00123FB7101E00023FB71FB7937
:1008500018460837BD4680BD80B485B000AF03465A
:10086000FB710023FB600A4B1B68FB60FB6823F0F5
:10087000F803FB60FB79DB00FA681343FB60044A72
:10088000FB68136000BF1437BD4680BC704700BFD3
:100890000010024080B483B000AF0346FB71044AED
:1008A000FB79136000BF0C37BD4680BC704700BFAA
:1008B0000000424280B485B000AF78603960002308
:1008C000FB600A4B5B68FB60FB6823F47C13FB60F6
:1008D0007A683B681343FA681343FB60034AFB687A
:1008E000536000BF1437BD4680BC70470010024003
:1008F00080B483B000AF0346FB71044AFB791360F8
:1009000000BF0C37BD4680BC704700BF600042424C
:1009100080B485B000AF78600023FB60094B5B6852
:10092000FB60FB6823F00303FB60FA687B681343FA
:10093000FB60044AFB68536000BF1437BD4680BCAF
:10094000704700BF0010024080B400AF044B5B68EA
:10095000DBB203F00C03DBB21846BD4680BC704727
:100960000010024080B485B000AF78600023FB60C7
:10097000094B5B68FB60FB6823F0F003FB60FA68DF
:100980007B681343FB60044AFB68536000BF143765
:10099000BD4680BC704700BF0010024080B485B0E7
:1009A00000AF78600023FB60094B5B68FB60FB686D
:1009B00023F4E063FB60FA687B681343FB60044A3E
:1009C000FB68536000BF1437BD4680BC704700BF52
:1009D0000010024080B485B000AF78600023FB6057
:1009E000094B5B68FB60FB6823F46053FB607B682A
:1009F000DB00FA681343FB60034AFB68536000BFE7
:100A00001437BD4680BC70470010024080B483B0EC
:100A100000AF03460A46FB711346BB71BB79002B3E
:100A200008D00C490B4B1B78DAB2FB791343DBB2CD
:100A30000B7009E00749074B1B78DAB2FB79DB43FF
:100A4000DBB21340DBB20B7000BF0C37BD4680BC7D
:100A5000704700BF0910024080B483B000AF7860D7
:100A6000034A7B68136000BF0C37BD4680BC7047EB
:100A7000D800424280B485B000AF78600023FB60AC
:100A8000094B5B68FB60FB6823F44043FB60FA683A
:100A90007B681343FB60044AFB68536000BF143754
:100AA000BD4680BC704700BF0010024080B483B0D8
:100AB00000AF0346FB710C4B00221A700A4B002258
:100AC0001A70FB79012B02D0042B04D007E0064BEF
:100AD00001221A7003E0044B05221A7000BF00BF08
:100AE0000C37BD4680BC70472010024080B483B0F4
:100AF00000AF0346FB71044AFB79136000BF0C375B
:100B0000BD4680BC704700BF8004424280B483B0C1
:100B100000AF78600549054B1A6A7B6813430B6286
:100B200000BF0C37BD4680BC704700BF00100240BC
:100B300080B483B000AF0346FB71044AFB791360B5
:100B400000BF0C37BD4680BC704700BF3C0442422A
:100B500080B487B000AF786000237B6100233B61E5
:100B60000023FB600023BB604C4B5B6803F00C036D
:100B70007B617B69042B07D0082B09D0002B33D174
:100B80007B68474A1A6033E07B68454A1A602FE069
:100B9000424B5B6803F470133B61404B5B6803F4AA
:100BA0008033FB603B699B0C02333B61FB68002B8D
:100BB00006D13B693B4A02FB03F27B681A6017E0EF
:100BC000364B5B6803F40033002B06D03B69354A93
:100BD00002FB03F27B681A600AE03B69304A02FBC1
:100BE00003F27B681A6003E07B682D4A1A6000BF3D
:100BF0002A4B5B6803F0F0037B617B691B097B6117
:100C0000294A7B6913441B78DBB2BB607B681A6896
:100C1000BB68DA407B685A60204B5B6803F4E06392
:100C20007B617B691B0A7B611F4A7B6913441B78CC
:100C3000DBB2BB607B685A68BB68DA407B689A604D
:100C4000164B5B6803F460537B617B69DB0A7B6155
:100C5000154A7B6913441B78DBB2BB607B685A681A
:100C6000BB68DA407B68DA600C4B5B6803F4404396
:100C70007B617B699B0B7B610C4A7B6913441B780E
:100C8000DBB2BB607B68DA68BB68B2FBF3F27B68FF
:100C90001A6100BF1C37BD4680BC7047001002407F
:100CA00000127A0000093D00000000201000002022
:100CB00080B483B000AF78600B46FB70FB78002BEC
:100CC00006D00949084B5A697B6813434B6106E01B
:100CD0000549054B5A697B68DB4313404B6100BFF4
:100CE0000C37BD4680BC70470010024080B483B012
:100CF00000AF78600B46FB70FB78002B06D00949EB
:100D0000084B9A697B6813438B6106E00549054BE4
:100D10009A697B68DB4313408B6100BF0C37BD468B
:100D200080BC70470010024080B483B000AF786090
:100D30000B46FB70FB78002B06D00949084BDA699B
:100D40007B681343CB6106E00549054BDA697B6894
:100D5000DB431340CB6100BF0C37BD4680BC7047FE
:100D60000010024080B483B000AF78600B46FB7087
:100D7000FB78002B06D00949084BDA687B681343DF
:100D8000CB6006E00549054BDA687B68DB4313401E
:100D9000CB6000BF0C37BD4680BC704700100240DE
:100DA00080B483B000AF78600B46FB70FB78002BFB
:100DB00006D00949084B1A697B6813430B6106E0AA
:100DC0000549054B1A697B68DB4313400B6100BF83
:100DD0000C37BD4680BC70470010024080B483B021
:100DE00000AF0346FB71044AFB79136000BF0C3768
:100DF000BD4680BC704700BF4004424280B483B00F
:100E000000AF0346FB71044AFB79136000BF0C3747
:100E1000BD4680BC704700BF4C00424280B483B0E6
:100E200000AF0346FB71044AFB79137000BF0C3717
:100E3000BD4680BC704700BF0710024080B487B039
:100E400000AF0346FB710023FB6000237B6100239E
:100E5000FB74FB795B09DBB2FB60FB68012B03D100
:100E6000124B1B687B6109E0FB68022B03D10F4B1F
:100E70001B6A7B6102E00D4B5B6A7B61FB7903F0CF
:100E80001F03FB607A69FB6822FA03F303F0010396
:100E9000002B02D00123FB7401E00023FB74FB7CD8
:100EA00018461C37BD4680BC704700BF001002408A
:100EB00080B400AF044A044B5B6A43F08073536212
:100EC00000BFBD4680BC70470010024080B485B0B2
:100ED00000AF0346FB710023FB73084B9A68FB7954
:100EE0001340002B02D00123FB7301E00023FB73AE
:100EF000FB7B18461437BD4680BC7047001002408B
:100F000080B483B000AF0346FB71044AFB791370D1
:100F100000BF0C37BD4680BC704700BF0A100240BE
:100F200080B483B000AF7860054A7B6843F0BF634C
:100F300043F40033D36000BF0C37BD4680BC70471C
:100F400000ED00E080B487B000AF786000237B61E3
:100F500000233B610F23FB607B68DB78002B3AD0DA
:100F6000274BDB68DB4303F4E0631B0A7B617B698F
:100F7000C3F104033B61FA687B6922FA03F3FB6067
:100F80007B685B781A463B6902FA03F37B617B68F6
:100F90009B781A46FB6813407A6913437B617B692F
:100FA0001B017B61174A7B681B787969C9B21344BE
:100FB0000A4683F80023134A7B681B785B09DBB27F
:100FC00018467B681B7803F01F03012101FA03F325
:100FD00042F820300FE00B497B681B785B09DBB2DD
:100FE00018467B681B7803F01F0301229A4000F12A
:100FF000200341F8232000BF1C37BD4680BC70474A
:1010000000ED00E000E100E080B483B000AF786064
:10101000396007493B6823F0604323F07F037A6817
:1010200013438B6000BF0C37BD4680BC704700BFC8
:1010300000ED00E080B483B000AF03460A46FB71C8
:101040001346BB71BB79002B06D00949084B1A69BE
:10105000FB7913430B6106E00549054B1A69FB79DF
:10106000DB4313400B6100BF0C37BD4680BC7047AB
:1010700000ED00E080B483B000AF78607B68042BA3
:1010800006D1094A084B1B6843F00403136005E0CE
:10109000054A054B1B6823F00403136000BF0C379F
:1010A000BD4680BC704700BF10E000E080B582B054
:1010B00000AF78607B680E4A93420AD101214FF459
:1010C0000010FFF76DFE00214FF40010FFF768FEDF
:1010D00009E001214FF48000FFF762FE00214FF488
:1010E0008000FFF75DFE00BF0837BD4680BD00BF32
:1010F0000054004080B58AB000AF786039600023AA
:10110000FB8400237B840423BB84574BFB617B68F7
:101110009B88FB84FB8C23F03F03FB8407F10803CF
:101120001846FFF715FD3B69FB61FB694F4AA2FBBF
:1011300003239B0C7B84FA8C7B8C1343FB847B689E
:10114000FA8C9A807B681B889BB223F001039AB2C9
:101150007B681A800023FB843B681B68444A9342E7
:1011600015D83B681B685B00FA69B2FBF3F3BB84DC
:10117000BB8C032B01D80423BB84FA8CBB8C134398
:10118000FB847B8C01339AB27B681A8440E03B6815
:10119000DB884BF6FF72934209D13B681A6813460D
:1011A0005B001344FA69B2FBF3F3BB840EE03B68C7
:1011B0001A6813469B0013449A001344FA69B2FB61
:1011C000F3F3BB84BB8C43F48043BB84BB8CC3F37D
:1011D0000B03002B03D1BB8C43F00103BB84BA8CFF
:1011E000FB8C13439BB26FEA43436FEA5343FB8488
:1011F0007B8C4FF4967202FB03F31E4A82FB0312B0
:101200009211DB17D31A9BB201339AB27B681A840E
:101210007B68FA8C9A837B681B889BB243F001033E
:101220009AB27B681A807B681B88FB84FB8C23F452
:10123000816323F00203FB843B689A883B685B89E7
:1012400013439AB2FB8C1343FB847B68FA8C1A809D
:101250003B689A893B681B8913439AB27B681A8161
:1012600000BF2837BD4680BD00127A0083DE1B43D5
:10127000A0860100D34D621080B483B000AF7860C7
:101280007B6841F288321A607B6800229A807B6812
:101290004BF6FF72DA807B6800221A817B6800229D
:1012A0005A817B684FF480429A8100BF0C37BD465B
:1012B00080BC704780B483B000AF78600B46FB7091
:1012C000FB78002B08D07B681B889BB243F001039E
:1012D0009AB27B681A8007E07B681B889BB223F078
:1012E00001039AB27B681A8000BF0C37BD4680BCF0
:1012F000704700BF80B483B000AF78600B46FB70CE
:10130000FB78002B08D07B689B889BB243F400637A
:101310009AB27B689A8007E07B689B889BB223F433
:1013200000639AB27B689A8000BF0C37BD4680BCD0
:10133000704700BF80B483B000AF78600B46FB708D
:10134000FB78002B08D07B689B889BB243F48053CA
:101350009AB27B689A8007E07B689B889BB223F4F3
:1013600080539AB27B689A8000BF0C37BD4680BC20
:10137000704700BF80B483B000AF78600B46FB704D
:10138000FB78002B08D07B681B889BB243F48073EA
:101390009AB27B681A8007E07B681B889BB223F4B3
:1013A00080739AB27B681A8000BF0C37BD4680BC40
:1013B000704700BF80B483B000AF78600B46FB700D
:1013C000FB78002B08D07B681B889BB243F400732A
:1013D0009AB27B681A8007E07B681B889BB223F473
:1013E00000739AB27B681A8000BF0C37BD4680BC80
:1013F000704700BF80B483B000AF78600B46FB70CD
:10140000FB78002B08D07B681B889BB243F4806379
:101410009AB27B681A8007E07B681B889BB223F432
:1014200080639AB27B681A8000BF0C37BD4680BCCF
:10143000704700BF80B485B000AF78600B46FB708A
:101440000023FB817B689B89FB81FB8923F0FE03E2
:10145000FB81FB781BB203F0FE031AB2B7F90E3022
:1014600013431BB2FB817B68FA899A8100BF143752
:10147000BD4680BC704700BF80B483B000AF7860C9
:101480000B46FB70FB78002B08D07B689B899BB2D6
:1014900043F001039AB27B689A8107E07B689B89DD
:1014A0009BB223F001039AB27B689A8100BF0C378C
:1014B000BD4680BC704700BF80B483B000AF786089
:1014C0000B46FB70FB78002B08D07B681B889BB217
:1014D00043F040039AB27B681A8007E07B681B8860
:1014E0009BB223F040039AB27B681A8000BF0C378E
:1014F000BD4680BC704700BF80B483B000AF786049
:101500000B467B8013467B707B78002B08D07B6872
:101510009B889AB27B8813439AB27B689A8009E0D1
:101520007B689B889AB27B88DB439BB213409AB25C
:101530007B689A8000BF0C37BD4680BC704700BFF7
:1015400080B483B000AF78600B46FB70FB789AB232
:101550007B681A8200BF0C37BD4680BC704700BF55
:1015600080B483B000AF78607B681B8A9BB2DBB22B
:1015700018460C37BD4680BC704700BF80B483B0AE
:1015800000AF78600B46FB701346BB70BB78002B36
:1015900004D0FB7843F00103FB7003E0FB7823F0F9
:1015A0000103FB70FB789AB27B681A8200BF0C378C
:1015B000BD4680BC704700BF80B485B000AF786086
:1015C0000B46FB700023FB607B68FB60FA78FB68CE
:1015D0001344FB60FB681B889BB218461437BD465A
:1015E00080BC704780B483B000AF78600B46FB705E
:1015F000FB78002B0AD07B681B889BB26FEA4343C1
:101600006FEA53439AB27B681A8007E07B681B88B5
:101610009BB2C3F30E039AB27B681A8000BF0C37EB
:10162000BD4680BC704700BF80B483B000AF786017
:101630000B467B807B88B3F5006F08D17B681B88E5
:101640009BB243F400639AB27B681A8007E07B6820
:101650001B889BB223F400639AB27B681A8000BF98
:101660000C37BD4680BC704780B483B000AF786053
:101670000B467B807B88B3F5005F08D17B681B88B5
:101680009BB243F400539AB27B681A8007E07B68F0
:101690001B889BB223F400539AB27B681A8000BF68
:1016A0000C37BD4680BC704780B483B000AF786013
:1016B0000B46FB70FB78002B08D07B681B889BB225
:1016C00043F480539AB27B681A8007E07B681B88DA
:1016D0009BB223F480539AB27B681A8000BF0C3708
:1016E000BD4680BC704700BF80B483B000AF786057
:1016F0000B467B807B88B3F5006F08D17B681B8825
:101700009BB243F400639AB27B681A8007E07B685F
:101710001B889BB223F400639AB27B681A8000BFD7
:101720000C37BD4680BC704780B483B000AF786092
:101730000B46FB70FB78002B08D07B681B889BB2A4
:1017400043F020039AB27B681A8007E07B681B880D
:101750009BB223F020039AB27B681A8000BF0C373B
:10176000BD4680BC704700BF80B483B000AF7860D6
:101770007B681B8B9BB21B0A9BB2DBB218460C37F3
:10178000BD4680BC704700BF80B483B000AF7860B6
:101790000B46FB70FB78002B08D07B681B889BB244
:1017A00043F010039AB27B681A8007E07B681B88BD
:1017B0009BB223F010039AB27B681A8000BF0C37EB
:1017C000BD4680BC704700BF80B483B000AF786076
:1017D0000B46FB70FB78002B08D17B681B889BB203
:1017E00043F080039AB27B681A8007E07B681B880D
:1017F0009BB223F080039AB27B681A8000BF0C373B
:10180000BD4680BC704700BF80B483B000AF786035
:101810000B467B807B88B3F5804F08D07B689B8B21
:101820009BB223F480439AB27B689A8307E07B687B
:101830009B8B9BB243F480439AB27B689A8300BF30
:101840000C37BD4680BC704780B487B000AF78606D
:10185000396000233B610023FB600023BB60002351
:10186000FB757B689B8A9BB2FB607B681B8B9BB282
:10187000BB60BB681B04BB60FA68BB68134323F002
:101880007F433B613A693B681A403B689A4202D108
:101890000123FB7501E00023FB75FB7D18461C3717
:1018A000BD4680BC704700BF80B487B000AF786091
:1018B00000237B6100233B610023FB607B689B8AE4
:1018C0009BB23B617B681B8B9BB2FB60FB681B047C
:1018D000FB603A69FB68134323F07F437B617B69BC
:1018E00018461C37BD4680BC704700BF80B487B027
:1018F00000AF786039600023FB7500233B61002353
:10190000FB607B68FB603B681B0F3B613B6823F01F
:101910007F433B603B69002B03D0FB681433FB60C3
:1019200005E03B681B0C3B60FB681833FB60FB6801
:101930001A683B681340002B02D00123FB7501E0BD
:101940000023FB75FB7D18461C37BD4680BC7047E5
:1019500080B485B000AF786039600023FB603B68DD
:1019600023F07F43FB60FB689BB2DB439AB27B684A
:101970009A8200BF1437BD4680BC704780B485B0E2
:1019800000AF786039600023FB730023BB603B68C5
:101990001B0C7A68928892B2134003F4E063BB6038
:1019A0003B6823F07F433B607B689B8A9BB21A466F
:1019B0003B681340002B05D0BB68002B02D00123ED
:1019C000FB7301E00023FB73FB7B18461437BD4615
:1019D00080BC704780B485B000AF78603960002368
:1019E000FB603B6823F07F43FB60FB689BB2DB43FB
:1019F0009AB27B689A8200BF1437BD4680BC70479C
:101A0000002103E00A4B5B584350043109480A4B5C
:101A100042189A42F6D3094A02E0002342F8043BF6
:101A2000074B9A42F9D300F00FF804F0E7FB704738
:101A30006C650008000000206004002060040020A5
:101A4000D0040020FEE7000080B500AF154A154B1A
:101A50001B6843F0010313601249124B5A68124B82
:101A600013404B600F4A0F4B1B6823F0847323F421
:101A7000803313600B4A0B4B1B6823F480231360E5
:101A8000084A084B5B6823F4FE035360054B4FF490
:101A90001F029A6000F078F8044B4FF000629A60E1
:101AA00000BF80BD001002400000FFF800ED00E024
:101AB00080B485B000AF0023FB600023BB6000232F
:101AC0007B602C4B5B6803F00C03FB60FB68042B12
:101AD00007D0082B09D0002B33D1274B274A1A6097
:101AE00033E0254B254A1A602FE0224B5B6803F454
:101AF0007013BB601F4B5B6803F480337B60BB6873
:101B00009B0C0233BB607B68002B06D1BB681C4A70
:101B100002FB03F3184A136017E0164B5B6803F4EB
:101B20000033002B06D0BB68154A02FB03F3124AB0
:101B300013600AE0BB68114A02FB03F30E4A13600C
:101B400003E00D4B0D4A1A6000BF0A4B5B6803F0BF
:101B5000F0031B090B4AD35CDBB2FB60064B1A682F
:101B6000FB6822FA03F3044A136000BF1437BD4632
:101B700080BC7047001002401400002000127A0060
:101B800000093D001800002080B500AF00F002F809
:101B900000BF80BD80B483B000AF00237B60002312
:101BA0003B603A4A394B1B6843F480331360374B30
:101BB0001B6803F400333B607B6801337B603B6848
:101BC000002B03D17B68B3F5A06FF0D12F4B1B68BE
:101BD00003F40033002B02D001233B6001E000231B
:101BE0003B603B68012B4BD1294A294B1B6843F0D2
:101BF00010031360264A264B1B6823F0030313606F
:101C0000234A234B1B6843F0020313601F4A1F4BF8
:101C10005B6853601D4A1D4B5B6853601B4A1B4B3E
:101C20005B6843F480635360184A184B5B6823F485
:101C30007C135360154A154B5B6843F4E8135360FB
:101C4000124A124B1B6843F08073136000BF0F4BA6
:101C50001B6803F00073002BF9D00C4A0B4B5B6838
:101C600023F003035360094A084B5B6843F0020307
:101C7000536000BF054B5B6803F00C03082BF9D1E0
:101C800000BF0C37BD4680BC704700BF001002404B
:101C90000020024080B483B000AF0346FB80044ABA
:101CA000FB88136000BF0C37BD4680BC704700BF87
:101CB0000030004080B483B000AF0346FB71044A9B
:101CC000FB79536000BF0C37BD4680BC704700BF36
:101CD0000030004080B483B000AF0346FB80044A6C
:101CE000FB88936000BF0C37BD4680BC704700BFC7
:101CF0000030004080B400AF034B4AF6AA221A60BD
:101D000000BFBD4680BC70470030004080B400AFCB
:101D1000034B4CF6CC421A6000BFBD4680BC7047F6
:101D20000030004080B485B000AF0346FB80002344
:101D3000FB73084BDA68FB881340002B02D00123A9
:101D4000FB7301E00023FB73FB7B18461437BD4691
:101D500080BC70470030004080B582B000AF786032
:101D60007B68784A93420AD101214FF40060FEF764
:101D7000F9FF00214FF40060FEF7F4FFDEE07B681E
:101D8000B3F1804F08D101210120FFF709F80021AC
:101D90000120FFF705F8D1E07B686B4A934208D138
:101DA00001210220FEF7FCFF00210220FEF7F8FFD0
:101DB000C4E07B68654A934208D101210420FEF704
:101DC000EFFF00210420FEF7EBFFB7E07B68604ADD
:101DD000934208D101210820FEF7E2FF00210820EC
:101DE000FEF7DEFFAAE07B685A4A934208D1012140
:101DF0001020FEF7D5FF00211020FEF7D1FF9DE057
:101E00007B68554A934208D101212020FEF7C8FF84
:101E100000212020FEF7C4FF90E07B684F4A9342E8
:101E20000AD101214FF40050FEF79CFF00214FF42E
:101E30000050FEF797FF81E07B68494A93420AD140
:101E400001214FF40020FEF78DFF00214FF4002008
:101E5000FEF788FF72E07B68424A93420AD1012173
:101E60004FF48010FEF77EFF00214FF48010FEF744
:101E700079FF63E07B683C4A93420AD101214FF429
:101E80000010FEF76FFF00214FF40010FEF76AFF0D
:101E900054E07B68354A934208D101214020FEF787
:101EA0007FFF00214020FEF77BFF47E07B68304A40
:101EB000934208D101218020FEF772FF002180208B
:101EC000FEF76EFF3AE07B682A4A93420AD101216D
:101ED0004FF48070FEF764FF00214FF48070FEF72E
:101EE0005FFF2BE07B68244A93420AD101214FF423
:101EF0008030FEF737FF00214FF48030FEF732FFCD
:101F00001CE07B681D4A93420AD101214FF4003046
:101F1000FEF728FF00214FF40030FEF723FF0DE00D
:101F20007B68174A934209D101214FF48020FEF7C4
:101F300019FF00214FF48020FEF714FF00BF08377F
:101F4000BD4680BD002C0140000400400008004058
:101F5000000C00400010004000140040003401401C
:101F6000004C014000500140005401400018004066
:101F7000001C00400020004000400140004401409F
:101F80000048014080B485B000AF7860396000231C
:101F9000FB817B681B88FB817B682E4A934213D0B0
:101FA0007B682D4A93420FD07B68B3F1804F0BD0F2
:101FB0007B682A4A934207D07B68294A934203D020
:101FC0007B68284A934208D1FB8923F07003FB8188
:101FD0003B685A88FB891343FB817B68224A934202
:101FE0000CD07B68214A934208D0FB8923F44073CC
:101FF000FB813B68DA88FB891343FB817B68FA89A4
:102000001A803B689A887B689A853B681A887B6847
:102010001A857B680F4A93420FD07B680E4A934221
:102020000BD07B68124A934207D07B68114A9342D7
:1020300003D07B68104A934204D13B681B7A9AB262
:102040007B681A867B6801229A8200BF1437BD46DE
:1020500080BC7047002C0140003401400004004067
:1020600000080040000C0040001000400014004038
:1020700000400140004401400048014080B485B068
:1020800000AF7860396000237B810023FB8100234F
:10209000BB817B681B8C9BB223F001039AB27B68E7
:1020A0001A847B681B8CFB817B689B88BB817B6867
:1020B0001B8B7B817B8923F070037B817B8923F0E1
:1020C00003037B813B681A887B8913437B81FB89EF
:1020D00023F00203FB813B681A89FB891343FB81D0
:1020E0003B685A88FB891343FB817B68244A9342EF
:1020F0000FD07B68234A93420BD07B68224A9342DD
:1021000007D07B68214A934203D07B68204A9342E0
:1021100023D1FB8923F00803FB813B685A89FB89A3
:102120001343FB81FB8923F00403FB813B689A88FE
:10213000FB891343FB81BB8923F48073BB81BB897B
:1021400023F40073BB813B689A89BB891343BB812D
:102150003B68DA89BB891343BB817B68BA899A8063
:102160007B687A891A833B68DA887B689A867B6801
:10217000FA891A8400BF1437BD4680BC704700BF7F
:10218000002C014000340140004001400044014067
:102190000048014080B485B000AF7860396000230A
:1021A0007B810023FB810023BB817B681B8C9BB25E
:1021B00023F010039AB27B681A847B681B8CFB8126
:1021C0007B689B88BB817B681B8B7B817B8923F42D
:1021D000E0437B817B8923F440737B813B681B88D0
:1021E0001B029AB27B8913437B81FB8923F0200376
:1021F000FB813B681B891B019AB2FB891343FB815E
:102200003B685B881B019AB2FB891343FB817B68A7
:10221000224A934203D07B68214A93422BD1FB8907
:1022200023F08003FB813B685B891B019AB2FB8929
:102230001343FB81FB8923F04003FB813B689B88B0
:102240001B019AB2FB891343FB81BB8923F4806392
:10225000BB81BB8923F40063BB813B689B899B00E6
:102260009AB2BB891343BB813B68DB899B009AB25E
:10227000BB891343BB817B68BA899A807B687A8962
:102280001A833B68DA887B681A877B68FA891A8424
:1022900000BF1437BD4680BC704700BF002C014012
:1022A0000034014080B485B000AF7860396000230D
:1022B0007B810023FB810023BB817B681B8C9BB24D
:1022C00023F480739AB27B681A847B681B8CFB8131
:1022D0007B689B88BB817B689B8B7B817B8923F0A0
:1022E00070037B817B8923F003037B813B681A8821
:1022F0007B8913437B81FB8923F40073FB813B685B
:102300001B891B029AB2FB891343FB813B685B88E4
:102310001B029AB2FB891343FB817B68224A9342DA
:1023200003D07B68214A93422BD1FB8923F40063BD
:10233000FB813B685B891B029AB2FB891343FB81DB
:10234000FB8923F48063FB813B689B881B029AB264
:10235000FB891343FB81BB8923F48053BB81BB8979
:1023600023F40053BB813B689B891B019AB2BB8954
:102370001343BB813B68DB891B019AB2BB891343C2
:10238000BB817B68BA899A807B687A899A833B682B
:10239000DA887B689A877B68FA891A8400BF1437C9
:1023A000BD4680BC704700BF002C01400034014096
:1023B00080B485B000AF786039600023BB81002312
:1023C0007B810023FB817B681B8C9BB223F48053B1
:1023D0009AB27B681A847B681B8C7B817B689B88A4
:1023E000FB817B689B8BBB81BB8923F4E043BB8172
:1023F000BB8923F44073BB813B681B881B029AB2E4
:10240000BB891343BB817B8923F400537B813B68E9
:102410001B891B039AB27B8913437B813B685B88D2
:102420001B039AB27B8913437B817B68124A9342D8
:1024300003D07B68114A93420AD1FB8923F480437D
:10244000FB813B689B899B019AB2FB891343FB810B
:102450007B68FA899A807B68BA899A833B68DA88B4
:102460007B68A3F840207B687A891A8400BF143700
:10247000BD4680BC704700BF002C014000340140C5
:1024800080B582B000AF786039603B681B88002B54
:102490000FD13B6859883B689A883B681B897868EC
:1024A00001F084F93B68DB881946786801F03EF852
:1024B00036E03B681B88042B0FD13B6859883B688A
:1024C0009A883B681B89786801F0E0F93B68DB88F3
:1024D0001946786801F046F822E03B681B88082B13
:1024E0000FD13B6859883B689A883B681B8978689C
:1024F00001F046FA3B68DB881946786801F050F82D
:102500000EE03B6859883B689A883B681B8978686D
:1025100001F0ACFA3B68DB881946786801F05CF89A
:1025200000BF0837BD4680BD80B584B000AF78607D
:1025300039600023FB810123BB813B685B88002B52
:1025400002D10223FB8101E00023FB813B689B88D1
:10255000012B02D10223BB8101E00123BB813B6837
:102560001B88002B1CD13B6859883B689A883B68C4
:102570001B89786801F01AF93B68DB88194678688E
:1025800000F0D4FF3B681B89BA89F989786801F0AB
:102590007DF93B68DB881946786800F0E3FF1BE0B3
:1025A0003B6859883B689A883B681B89786801F0CA
:1025B0006DF93B68DB881946786800F0D3FF3B680B
:1025C0001B89BA89F989786801F0F0F83B68DB88E3
:1025D0001946786800F0AAFF00BF1037BD4680BDDD
:1025E00080B483B000AF786039603B681A883B687C
:1025F0005B8813439AB23B689B8813439AB23B684B
:10260000DB8813439AB23B681B8913439AB23B6839
:102610005B8913439AB23B689B8913439AB27B68E8
:10262000A3F8442000BF0C37BD4680BC704700BFF4
:1026300080B483B000AF78607B684FF6FF729A80F9
:102640007B6800221A807B680022DA807B68002287
:102650005A807B6800221A7200BF0C37BD4680BCCE
:10266000704700BF80B483B000AF78607B68002201
:102670001A807B6800225A807B6800229A807B68DF
:102680000022DA807B6800221A817B6800225A814E
:102690007B6800229A817B680022DA8100BF0C37B8
:1026A000BD4680BC704700BF80B483B000AF786087
:1026B0007B6800221A807B6800225A807B68012296
:1026C0009A807B680022DA807B6800221A8100BF32
:1026D0000C37BD4680BC704780B483B000AF7860D3
:1026E0007B6800221A807B6800225A807B68002267
:1026F0009A807B680022DA807B6800221A817B68DE
:1027000000225A817B6800229A8100BF0C37BD46A7
:1027100080BC704780B483B000AF78600B46FB701C
:10272000FB78002B08D07B681B889BB243F0010329
:102730009AB27B681A8007E07B681B889BB223F003
:1027400001039AB27B681A8000BF0C37BD4680BC7B
:10275000704700BF80B483B000AF78600B46FB7059
:10276000FB78002B0CD07B68B3F844309BB26FEA47
:1027700043436FEA53439AB27B68A3F8442009E0CD
:102780007B68B3F844309BB2C3F30E039AB27B6804
:10279000A3F8442000BF0C37BD4680BC704700BF83
:1027A00080B483B000AF78600B467B8013467B70AB
:1027B0007B78002B08D07B689B899AB27B88134377
:1027C0009AB27B689A8109E07B689B899AB27B8880
:1027D000DB439BB213409AB27B689A8100BF0C37EF
:1027E000BD4680BC704700BF80B483B000AF786046
:1027F0000B467B807B687A889A8200BF0C37BD4687
:1028000080BC704780B483B000AF78600B467B809B
:1028100013463B807A883B8813439AB27B68A3F8BF
:10282000482000BF0C37BD4680BC704780B483B0E1
:1028300000AF78600B467B8013467B707B78002B63
:1028400008D07B689B899AB27B8813439AB27B68D5
:102850009A8109E07B689B899AB27B88DB439BB2B3
:1028600013409AB27B689A8100BF0C37BD4680BC8A
:10287000704700BF80B483B000AF78607B681B896D
:102880009BB223F007039AB27B681A8100BF0C3712
:10289000BD4680BC704700BF80B582B000AF786095
:1028A0000B467B807B881946786800F0E5F87B68EA
:1028B0001B899BB243F007039AB27B681A8100BF61
:1028C0000837BD4680BD00BF80B584B000AFF8605A
:1028D000084611461A4603467B810B463B81134648
:1028E000FB807B89602B06D1FB8839890122F8683F
:1028F00000F0CCFF05E0FB8839890122F86800F080
:1029000055FF7B891946F86800F0B6F8FB681B890B
:102910009BB243F007039AB2FB681A8100BF1037DD
:10292000BD4680BD80B586B000AFF8600846114650
:102930001A4603467B810B463B811346FB800023EE
:10294000FB82FB883A897989F86800F03BF8FB68DC
:102950001B89FB82FB8A23F00703FB82FB8A43F07F
:102960000703FB82FB8A23F07003FB82FB8A43F0A0
:102970007003FB82FB68FA8A1A8100BF1837BD46D4
:1029800080BD00BF80B584B000AFF8600846114636
:102990001A4603467B810B463B811346FB80FB882E
:1029A0003A897989F86800F00DF8FB681B899BB2B9
:1029B00043F480439AB2FB681A8100BF1037BD46CA
:1029C00080BD00BF80B487B000AFF86008461146F4
:1029D0001A4603467B810B463B811346FB8000234E
:1029E000FB82FB681B89FB82FB8ADBB2FB82FB88D4
:1029F0001B029AB23B8913439AB27B8913439AB262
:102A0000FB8A1343FB82FB68FA8A1A8100BF1C37DA
:102A1000BD4680BC704700BF80B483B000AF786013
:102A20000B467B8013463B807B687A881A857B68DF
:102A30003A889A8200BF0C37BD4680BC704700BF01
:102A400080B485B000AF78600B467B800023FB81AB
:102A50007B681B88FB81FB8923F07003FB81FA896B
:102A60007B881343FB817B68FA891A8000BF143787
:102A7000BD4680BC704700BF80B485B000AF7860B1
:102A80000B467B800023FB817B681B89FB81FB89D4
:102A900023F07003FB81FA897B881343FB817B68F9
:102AA000FA891A8100BF1437BD4680BC704700BF49
:102AB00080B487B000AFF860084611461A46034656
:102AC0007B810B463B811346FB800023FB82002366
:102AD000BB8200237B82FB681B89FB82FB681B8B0C
:102AE000BB82FB681B8C7B82FB8A23F00703FB8283
:102AF000FA8A7B891343FB82BB8A23F4407323F059
:102B00000303BB82BB8A43F4807343F00103BB829F
:102B10007B8A23F022037B82FB881B019AB23B89CC
:102B200013439AB27B8A13437B82FB68FA8A1A8129
:102B3000FB68BA8A1A83FB687A8A1A8400BF1C373A
:102B4000BD4680BC704700BF80B485B000AF7860E0
:102B50000B467B800023FB817B681B8BFB81FB8901
:102B600023F07003FB81FA897B881343FB817B6828
:102B7000FA891A8300BF1437BD4680BC704700BF76
:102B800080B485B000AF78600B467B800023FB816A
:102B90007B681B8BFB81FB8923F4E043FB817B88F3
:102BA0001B029AB2FB891343FB817B68FA891A8363
:102BB00000BF1437BD4680BC704700BF80B485B0ED
:102BC00000AF78600B467B800023FB817B689B8B8A
:102BD000FB81FB8923F07003FB81FA897B88134317
:102BE000FB817B68FA899A8300BF1437BD4680BC9D
:102BF000704700BF80B485B000AF78600B467B8023
:102C00000023FB817B689B8BFB81FB8923F4E043E2
:102C1000FB817B881B029AB2FB891343FB817B6893
:102C2000FA899A8300BF1437BD4680BC704700BF45
:102C300080B483B000AF78600B46FB70FB78002B4C
:102C400008D07B681B889BB243F080039AB27B68F4
:102C50001A8007E07B681B889BB223F080039AB23E
:102C60007B681A8000BF0C37BD4680BC704700BF30
:102C700080B483B000AF78600B46FB70FB78002B0C
:102C800008D07B689B889BB243F004039AB27B68B0
:102C90009A8007E07B689B889BB223F004039AB27A
:102CA0007B689A8000BF0C37BD4680BC704700BF70
:102CB00080B483B000AF78600B46FB70FB78002BCC
:102CC00008D07B689B889BB243F008039AB27B686C
:102CD0009A8007E07B689B889BB223F008039AB236
:102CE0007B689A8000BF0C37BD4680BC704700BF30
:102CF00080B483B000AF78600B46FB70FB78002B8C
:102D000008D07B689B889BB243F001039AB27B6832
:102D10009A8007E07B689B889BB223F001039AB2FC
:102D20007B689A8000BF0C37BD4680BC704700BFEF
:102D300080B485B000AF78600B467B800023FB81B8
:102D40007B681B8BFB81FB8923F00803FB81FA89DD
:102D50007B881343FB817B68FA891A8300BF143791
:102D6000BD4680BC704700BF80B485B000AF7860BE
:102D70000B467B800023FB817B681B8BFB81FB89DF
:102D800023F40063FB817B881B029AB2FB89134307
:102D9000FB817B68FA891A8300BF1437BD4680BC6B
:102DA000704700BF80B485B000AF78600B467B8071
:102DB0000023FB817B689B8BFB81FB8923F008034D
:102DC000FB81FA897B881343FB817B68FA899A83AC
:102DD00000BF1437BD4680BC704700BF80B485B0CB
:102DE00000AF78600B467B800023FB817B689B8B68
:102DF000FB81FB8923F40063FB817B881B029AB271
:102E0000FB891343FB817B68FA899A8300BF1437DF
:102E1000BD4680BC704700BF80B485B000AF78600D
:102E20000B467B800023FB817B681B8BFB81FB892E
:102E300023F00403FB81FA897B881343FB817B68C1
:102E4000FA891A8300BF1437BD4680BC704700BFA3
:102E500080B485B000AF78600B467B800023FB8197
:102E60007B681B8BFB81FB8923F48063FB817B8860
:102E70001B029AB2FB891343FB817B68FA891A8390
:102E800000BF1437BD4680BC704700BF80B485B01A
:102E900000AF78600B467B800023FB817B689B8BB7
:102EA000FB81FB8923F00403FB81FA897B881343B0
:102EB000FB817B68FA899A8300BF1437BD4680BCCA
:102EC000704700BF80B485B000AF78600B467B8050
:102ED0000023FB817B689B8BFB81FB8923F4806350
:102EE000FB817B881B029AB2FB891343FB817B68C1
:102EF000FA899A8300BF1437BD4680BC704700BF73
:102F000080B485B000AF78600B467B800023FB81E6
:102F10007B681B8BFB81FB8923F08003FB81FA8993
:102F20007B881343FB817B68FA891A8300BF1437BF
:102F3000BD4680BC704700BF80B485B000AF7860EC
:102F40000B467B800023FB817B681B8BFB81FB890D
:102F5000C3F30E03FB817B881B029AB2FB891343E8
:102F6000FB817B68FA891A8300BF1437BD4680BC99
:102F7000704700BF80B485B000AF78600B467B809F
:102F80000023FB817B689B8BFB81FB8923F0800303
:102F9000FB81FA897B881343FB817B68FA899A83DA
:102FA00000BF1437BD4680BC704700BF80B485B0F9
:102FB00000AF78600B467B800023FB817B689B8B96
:102FC000FB81FB89C3F30E03FB817B881B029AB252
:102FD000FB891343FB817B68FA899A8300BF14370E
:102FE000BD4680BC704700BF80B485B000AF78603C
:102FF0000B467B800023FB817B681B8CFB81FB895C
:1030000023F00203FB81FA897B881343FB817B68F1
:10301000FA891A8400BF1437BD4680BC704700BFD0
:1030200080B485B000AF78600B467B800023FB81C5
:103030007B681B8CFB81FB8923F00803FB81FA89E9
:103040007B881343FB817B68FA891A8400BF14379D
:10305000BD4680BC704700BF80B485B000AF7860CB
:103060000B467B800023FB817B681B8CFB81FB89EB
:1030700023F02003FB817B881B019AB2FB89134359
:10308000FB817B68FA891A8400BF1437BD4680BC77
:10309000704700BF80B485B000AF78600B467B807E
:1030A0000023FB817B681B8CFB81FB8923F0800361
:1030B000FB817B881B019AB2FB891343FB817B68F0
:1030C000FA891A8400BF1437BD4680BC704700BF20
:1030D00080B485B000AF78600B467B800023FB8115
:1030E0007B681B8CFB81FB8923F40073FB817B884D
:1030F0001B029AB2FB891343FB817B68FA891A840D
:1031000000BF1437BD4680BC704700BF80B485B097
:1031100000AF78600B467B800023FB817B681B8CB3
:10312000FB81FB8923F40063FB817B881B029AB23D
:10313000FB891343FB817B68FA891A8400BF14372B
:10314000BD4680BC704700BF80B485B000AF7860DA
:103150000B467B800023FB817B681B8CFB81FB89FA
:1031600023F40053FB817B881B039AB2FB89134332
:10317000FB817B68FA891A8400BF1437BD4680BC86
:10318000704700BF80B485B000AF78600B467B808D
:1031900013463B800023FB817B88012202FA03F364
:1031A000FB817B681B8C9AB2FB89DB439BB213408B
:1031B0009AB27B681A847B681B8C9BB21AB23988DE
:1031C0007B8801FA03F31BB213431BB29AB27B68EC
:1031D0001A8400BF1437BD4680BC704780B485B0E8
:1031E00000AF78600B467B8013463B800023FB8159
:1031F0007B88042202FA03F3FB817B681B8C9AB262
:10320000FB89DB439BB213409AB27B681A847B68CC
:103210001B8C9BB21AB239887B8801FA03F31BB26C
:1032200013431BB29AB27B681A8400BF1437BD46A1
:1032300080BC704780B485B000AF78600B467B805F
:1032400013463B800023FB6000237B817B68FB608F
:10325000FB681833FB607B88012202FA03F37B8151
:103260007B681B8C9AB27B89DB439BB213409AB27A
:103270007B681A847B88002B02D07B88082B13D1B3
:103280007B885B089BB21A46FB681344FB60FB68B3
:10329000FA68126822F070021A60FB68FA68116816
:1032A0003A880A431A6016E07B88043B9BB25B08AD
:1032B0009BB21A46FB681344FB60FB68FA6812680D
:1032C00022F4E0421A60FB68FA6812683988090241
:1032D00089B20A431A6000BF1437BD4680BC7047EC
:1032E00080B483B000AF78600B46FB70FB78002B96
:1032F00008D07B681B889BB243F002039AB27B68BC
:103300001A8007E07B681B889BB223F002039AB205
:103310007B681A8000BF0C37BD4680BC704700BF79
:1033200080B483B000AF78600B467B807B88002B35
:1033300008D07B681B889BB243F004039AB27B6879
:103340001A8007E07B681B889BB223F004039AB2C3
:103350007B681A8000BF0C37BD4680BC704700BF39
:1033600080B483B000AF78600B46FB70FB78002B15
:1033700008D07B689B889BB243F080039AB27B683D
:103380009A8007E07B689B889BB223F080039AB207
:103390007B689A8000BF0C37BD4680BC704700BF79
:1033A00080B483B000AF78600B467B807B681B885D
:1033B0009BB223F008039AB27B681A807B681B8853
:1033C0009AB27B8813439AB27B681A8000BF0C378D
:1033D000BD4680BC704700BF80B483B000AF78604A
:1033E0000B467B807B689B889BB223F070039AB26C
:1033F0007B689A807B689B889AB27B8813439AB2D9
:103400007B689A8000BF0C37BD4680BC704700BF08
:1034100080B483B000AF78600B467B807B681B89EB
:103420009BB223F007039AB27B681A817B681B89E1
:103430009AB27B8813439AB27B681A8100BF0C371B
:10344000BD4680BC704700BF80B483B000AF7860D9
:103450000B467B807B681B899BB223F080039AB26A
:103460007B681A817B681B899AB27B8813439AB266
:103470007B681A8100BF0C37BD4680BC704700BF17
:1034800080B483B000AF78600B467B807B687A881D
:103490009A8400BF0C37BD4680BC704780B483B0AF
:1034A00000AF78600B467B807B687A889A8500BF86
:1034B0000C37BD4680BC704780B483B000AF7860E5
:1034C0000B467B807B687A889A8600BF0C37BD46A6
:1034D00080BC704780B483B000AF78600B467B80BF
:1034E0007B687A881A8700BF0C37BD4680BC70475E
:1034F00080B483B000AF78600B467B807B687A88AD
:103500009A8700BF0C37BD4680BC704780B483B03B
:1035100000AF78600B467B807B687A88A3F84020F8
:1035200000BF0C37BD4680BC704700BF80B483B07D
:1035300000AF78600B467B807B681B8B9BB223F0CF
:103540000C039AB27B681A837B681B8B9AB27B88C8
:1035500013439AB27B681A8300BF0C37BD4680BC08
:10356000704700BF80B483B000AF78600B467B80AB
:103570007B681B8B9BB223F440639AB27B681A83EF
:103580007B681B8B9AB27B881B029BB213439AB257
:103590007B681A8300BF0C37BD4680BC704700BFF4
:1035A00080B483B000AF78600B467B807B689B8BD8
:1035B0009BB223F00C039AB27B689A837B689B8B47
:1035C0009AB27B8813439AB27B689A8300BF0C3708
:1035D000BD4680BC704700BF80B483B000AF786048
:1035E0000B467B807B689B8B9BB223F440639AB233
:1035F0007B689A837B689B8B9AB27B881B029BB209
:1036000013439AB27B689A8300BF0C37BD4680BCD7
:10361000704700BF80B483B000AF78600B467B80FA
:103620007B681B889BB223F440739AB27B681A8034
:103630007B681B889AB27B8813439AB27B681A8096
:1036400000BF0C37BD4680BC704700BF80B483B05C
:1036500000AF78607B689B8E9BB218460C37BD46E6
:1036600080BC704780B483B000AF78607B681B8FEC
:103670009BB218460C37BD4680BC704780B483B0FF
:1036800000AF78607B689B8F9BB218460C37BD46B5
:1036900080BC704780B483B000AF78607B68B3F8BB
:1036A00040309BB218460C37BD4680BC704700BF07
:1036B00080B483B000AF78607B689B8C9BB2184667
:1036C0000C37BD4680BC704780B483B000AF7860D3
:1036D0007B681B8D9BB218460C37BD4680BC70477B
:1036E00080B485B000AF78600B467B800023FB730D
:1036F0007B681B8A9AB27B8813409BB2002B02D056
:103700000123FB7301E00023FB73FB7B1846143796
:10371000BD4680BC704700BF80B483B000AF786006
:103720000B467B807B88DB439AB27B681A8200BFA2
:103730000C37BD4680BC704780B485B000AF786060
:103740000B467B800023FB730023BB8100237B811E
:103750007B681B8A9AB27B881340BB817B689B89FC
:103760009AB27B8813407B81BB89002B05D07B8973
:10377000002B02D00123FB7301E00023FB73FB7BD2
:1037800018461437BD4680BC704700BF80B483B074
:1037900000AF78600B467B807B88DB439AB27B6806
:1037A0001A8200BF0C37BD4680BC704780B487B01A
:1037B00000AFF860084611461A4603467B810B4667
:1037C0003B811346FB800023BB820023FB82FB6806
:1037D0001B8C9BB223F001039AB2FB681A84FB682E
:1037E0001B8BBB82FB681B8CFB82BB8A23F0F30321
:1037F000BB82FB881B019AB23B8913439AB2BB8AF6
:103800001343BB82FB681C4A934213D0FB681B4ADC
:1038100093420FD0FB68B3F1804F0BD0FB68184A7E
:10382000934207D0FB68174A934203D0FB68164ABD
:1038300093420BD1FB8A23F00203FB827A89FB8A35
:1038400013439BB243F00103FB820AE0FB8A23F09F
:103850000A03FB827A89FB8A13439BB243F001037C
:10386000FB82FB68BA8A1A83FB68FA8A1A8400BF53
:103870001C37BD4680BC7047002C0140003401401D
:103880000004004000080040000C004080B487B0F5
:1038900000AFF860084611461A4603467B810B4686
:1038A0003B811346FB800023BB820023FB82002365
:1038B0007B82FB681B8C9BB223F010039AB2FB68DF
:1038C0001A84FB681B8BBB82FB681B8CFB827B8989
:1038D0001B017B82BB8A23F440731B051B0DBB823B
:1038E000FB881B039AB2BB8A1343BB823B891B0232
:1038F0009AB2BB8A1343BB82FB681C4A934213D023
:10390000FB681B4A93420FD0FB68B3F1804F0BD08A
:10391000FB68184A934207D0FB68174A934203D0CA
:10392000FB68164A93420BD1FB8A23F02003FB82EB
:103930007A8AFB8A13439BB243F01003FB820AE0AE
:10394000FB8A23F0A003FB827A89FB8A13439BB294
:1039500043F01003FB82FB68BA8A1A83FB68FA8A79
:103960001A8400BF1C37BD4680BC7047002C014044
:10397000003401400004004000080040000C0040FA
:1039800080B487B000AFF860084611461A46034677
:103990007B810B463B811346FB800023BB820023C7
:1039A000FB8200237B82FB681B8C9BB223F4807319
:1039B0009AB2FB681A84FB689B8BBB82FB681B8CEA
:1039C000FB827B891B027B82BB8A23F0F303BB82D1
:1039D000FB881B019AB23B8913439AB2BB8A1343FB
:1039E000BB82FB681C4A934213D0FB681B4A93427C
:1039F0000FD0FB68B3F1804F0BD0FB68184A93429D
:103A000007D0FB68174A934203D0FB68164A9342DB
:103A10000BD1FB8A23F40073FB827A8AFB8A13435F
:103A20009BB243F48073FB820AE0FB8A23F4206399
:103A3000FB827A89FB8A13439BB243F48073FB8237
:103A4000FB68BA8A9A83FB68FA8A1A8400BF1C371B
:103A5000BD4680BC704700BF002C014000340140CF
:103A60000004004000080040000C004080B487B013
:103A700000AFF860084611461A4603467B810B46A4
:103A80003B811346FB800023BB820023FB82002383
:103A90007B82FB681B8C9BB223F480539AB2FB6839
:103AA0001A84FB689B8BBB82FB681B8CFB827B8927
:103AB0001B037B82BB8A23F440731B051B0DBB8257
:103AC0003B891B029AB2BB8A1343BB82FB881B0350
:103AD0009AB2BB8A1343BB82FB681D4A934213D040
:103AE000FB681C4A93420FD0FB68B3F1804F0BD0A8
:103AF000FB68194A934207D0FB68184A934203D0E7
:103B0000FB68174A93420BD1FB8A23F40053FB82D4
:103B10007A8AFB8A13439BB243F48053FB820CE006
:103B2000FB8A23F400735B045B0CFB827A89FB8ABB
:103B300013439BB243F48053FB82FB68BA8A9A8397
:103B4000FB68FA8A1A8400BF1C37BD4680BC7047E8
:103B5000002C0140003401400004004000080040F7
:103B6000000C004080B582B000AF78607B68264AC8
:103B700093420AD101214FF48040FDF7F3F8002170
:103B80004FF48040FDF7EEF83AE07B681F4A93421D
:103B90000AD101214FF40030FDF702F900214FF462
:103BA0000030FDF7FDF82BE07B68194A93420AD1FB
:103BB00001214FF48020FDF7F3F800214FF480201D
:103BC000FDF7EEF81CE07B68124A93420AD101210E
:103BD0004FF40020FDF7E4F800214FF40020FDF73A
:103BE000DFF80DE07B680C4A934209D101214FF4C4
:103BF0008010FDF7D5F800214FF48010FDF7D0F8C4
:103C000000BF0837BD4680BD003801400044004079
:103C100000480040004C00400050004080B58CB08F
:103C200000AF786039600023FB620023BB62002391
:103C30007B6200233B620023FB617B68FB617B6846
:103C40001B8A9BB2FB62FA6A4CF6FF731340FB625D
:103C50003B68DB881A46FB6A1343FB62FB6A9AB235
:103C60007B681A827B689B899BB2FB62FA6A4EF67C
:103C7000F3131340FB623B689A883B681B8913432C
:103C80009AB23B685B8913439BB21A46FB6A1343A3
:103C9000FB62FB6A9AB27B689A817B689B8A9BB2C3
:103CA000FB62FA6A4FF6FF431340FB623B689B8955
:103CB0001A46FB6A1343FB62FB6A9AB27B689A82DC
:103CC00007F108031846FCF743FFFB692E4A9342AD
:103CD00002D17B69BB6201E03B69BB627B689B8967
:103CE0009BB21BB2002B0CDABA6A13469B0013443A
:103CF0009A001A443B681B685B00B2FBF3F37B62DB
:103D00000BE0BA6A13469B0013449A001A443B68BE
:103D10001B689B00B2FBF3F37B627B6A1B4AA2FB2E
:103D200003235B091B01FB62FB6A1B09642202FB84
:103D300003F37A6AD31A3B627B689B899BB21BB2FE
:103D4000002B0CDA3B6ADB003233104AA2FB032360
:103D50005B0903F00703FA6A1343FB620BE03B6A5B
:103D60001B013233094AA2FB03235B0903F00F0353
:103D7000FA6A1343FB62FB6A9AB27B681A8100BF3E
:103D80003037BD4680BD00BF003801401F85EB5174
:103D900080B483B000AF78607B684FF416521A602D
:103DA0007B6800229A807B680022DA807B68002290
:103DB0001A817B680C225A817B6800229A8100BF9D
:103DC0000C37BD4680BC704780B485B000AF7860CA
:103DD00039600023FB607B681B8A9BB2FB60FA683A
:103DE0004FF2FF031340FB603B681A883B685B8817
:103DF00013439AB23B689B8813439AB23B68DB88B3
:103E000013439BB21A46FB681343FB60FB689AB2EC
:103E10007B681A8200BF1437BD4680BC704700BF64
:103E200080B483B000AF78607B6800221A807B6822
:103E300000225A807B6800229A807B680022DA8008
:103E400000BF0C37BD4680BC704700BF80B483B054
:103E500000AF78600B46FB70FB78002B08D07B68C6
:103E60009B899BB243F400539AB27B689A8107E026
:103E70007B689B899BB223F400539AB27B689A813A
:103E800000BF0C37BD4680BC704700BF80B487B010
:103E900000AF78600B467B8013467B7000233B614C
:103EA0000023FB600023BB6000237B617B687B6198
:103EB0007B88DBB25B09DBB23B617B8803F01F03CD
:103EC000FB600122FB6802FA03F3BB603B69012B34
:103ED00003D17B690C337B6109E03B69022B03D181
:103EE0007B6910337B6102E07B6914337B617B78F3
:103EF000002B06D07B697A691168BA680A431A6098
:103F000006E07B697A691168BA68D2430A401A6090
:103F100000BF1C37BD4680BC704700BF80B483B073
:103F200000AF78600B467B8013467B707B78002B5C
:103F300008D07B689B8A9AB27B8813439AB27B68CD
:103F40009A8209E07B689B8A9AB27B88DB439BB2AA
:103F500013409AB27B689A8200BF0C37BD4680BC82
:103F6000704700BF80B483B000AF78600B46FB7031
:103F70007B681B8A9BB223F00F039AB27B681A827C
:103F80007B681B8A9AB2FB789BB213439AB27B6818
:103F90001A8200BF0C37BD4680BC704780B483B026
:103FA00000AF78600B467B807B689B899BB223F4D3
:103FB00000639AB27B689A817B689B899AB27B88FE
:103FC00013439AB27B689A8100BF0C37BD4680BC10
:103FD000704700BF80B483B000AF78600B46FB70C1
:103FE000FB78002B08D07B689B899BB243F00203CF
:103FF0009AB27B689A8107E07B689B899BB223F029
:1040000002039AB27B689A8100BF0C37BD4680BC20
:10401000704700BF80B483B000AF78600B467B80F0
:104020007B681B8A9BB223F020039AB27B681A82BA
:104030007B681B8A9AB27B8813439AB27B681A8288
:1040400000BF0C37BD4680BC704700BF80B483B052
:1040500000AF78600B46FB70FB78002B08D07B68C4
:104060001B8A9BB243F480439AB27B681A8207E0B2
:104070007B681B8A9BB223F480439AB27B681A82C6
:1040800000BF0C37BD4680BC704700BF80B483B012
:1040900000AF78600B467B807B88C3F308039AB23D
:1040A0007B689A8000BF0C37BD4680BC704700BF5C
:1040B00080B483B000AF78607B689B889BB2C3F309
:1040C00008039BB218460C37BD4680BC704700BF42
:1040D00080B483B000AF78607B689B899BB243F06B
:1040E00001039AB27B689A8100BF0C37BD4680BC41
:1040F000704700BF80B483B000AF78600B46FB70A0
:104100007B681B8B9BB2DBB29AB27B681A837B689D
:104110001B8B9AB2FB789BB21B029BB213439AB2E1
:104120007B681A8300BF0C37BD4680BC704700BF58
:1041300080B483B000AF78600B46FB707B681B8B4C
:104140009BB223F0FF039AB27B681A837B681B8BB8
:104150009AB2FB789BB213439AB27B681A8300BF72
:104160000C37BD4680BC704780B483B000AF786028
:104170000B46FB70FB78002B08D07B689B8A9BB2B8
:1041800043F020039AB27B689A8207E07B689B8A9F
:104190009BB223F020039AB27B689A8200BF0C374F
:1041A000BD4680BC704700BF80B483B000AF78606C
:1041B0000B46FB70FB78002B08D07B689B8A9BB278
:1041C00043F010039AB27B689A8207E07B689B8A6F
:1041D0009BB223F010039AB27B689A8200BF0C371F
:1041E000BD4680BC704700BF80B483B000AF78602C
:1041F0000B46FB70FB78002B08D07B689B8A9BB238
:1042000043F008039AB27B689A8207E07B689B8A36
:104210009BB223F008039AB27B689A8200BF0C37E6
:10422000BD4680BC704700BF80B483B000AF7860EB
:104230000B46FB70FB78002B0AD07B689B899BB2F6
:104240006FEA43436FEA53439AB27B689A8107E06F
:104250007B689B899BB2C3F30E039AB27B689A81F9
:1042600000BF0C37BD4680BC704700BF80B483B030
:1042700000AF78600B46FB70FB78002B08D07B68A2
:104280009B8A9BB243F400639AB27B689A8207E0F0
:104290007B689B8A9BB223F400639AB27B689A8204
:1042A00000BF0C37BD4680BC704700BF80B483B0F0
:1042B00000AF78600B467B807B689B8A9BB223F0C3
:1042C00004039AB27B689A827B689B8A9AB27B8845
:1042D00013439AB27B689A8200BF0C37BD4680BCFC
:1042E000704700BF80B483B000AF78600B46FB70AE
:1042F000FB78002B08D07B689B8A9BB243F00203BB
:104300009AB27B689A8207E07B689B8A9BB223F013
:1043100002039AB27B689A8200BF0C37BD4680BC0C
:10432000704700BF80B485B000AF78600B467B80DB
:104330000023FB737B681B889AB27B8813409BB277
:10434000002B02D00123FB7301E00023FB73FB7BF6
:1043500018461437BD4680BC704700BF80B483B098
:1043600000AF78600B467B807B88DB439AB27B682A
:104370001A8000BF0C37BD4680BC704780B487B040
:1043800000AF78600B467B800023FB6000237B61DD
:104390000023BB600023FB747B88DBB25B09DBB2CC
:1043A000BB607B8803F01F037B6101227B6902FAFB
:1043B00003F37B61BB68012B07D17B689B899BB2B0
:1043C0001A467B6913407B6111E0BB68022B07D161
:1043D0007B681B8A9BB21A467B6913407B6106E0AF
:1043E0007B689B8A9BB21A467B6913407B617B8802
:1043F0001B0A9BB2FB600122FB6802FA03F3FB601D
:104400007B681B889BB21A46FB681340FB607B6984
:10441000002B05D0FB68002B02D00123FB7401E0C8
:104420000023FB74FB7C18461C37BD4680BC7047DC
:1044300080B485B000AF78600B467B800023FB81A1
:104440000023BB817B881B0AFB81FB89012202FAC6
:1044500003F3BB81BB89DB439AB27B681A8000BF40
:104460001437BD4680BC704780B582B000AF78601D
:104470007B68174A93420AD101214FF40070FCF780
:1044800071FC00214FF40070FCF76CFC1CE07B68B1
:10449000104A93420AD101214FF48060FCF762FC7C
:1044A00000214FF48060FCF75DFC0DE07B680A4A58
:1044B000934209D101214FF40040FCF753FC002145
:1044C0004FF40040FCF74EFC00BF0837BD4680BDEE
:1044D0000024014000280140003C014080B485B028
:1044E00000AF786039600023FB600023FB727B68BB
:1044F0005B68FB60FB6823F4702323F48073FB602C
:104500003B681A683B681B791B021343FA68134324
:10451000FB607B68FA685A607B689B68FB60FA689E
:10452000164B1340FB603B68DA683B689B681A4394
:104530003B685B795B001343FA681343FB607B685D
:10454000FA689A607B68DB6AFB60FB6823F470039F
:10455000FB603B681B7C013BDAB2FB7A1343FB72C6
:10456000FB7A1B05FA681343FB607B68FA68DA6222
:1045700000BF1437BD4680BC704700BFFDF7F1FF98
:1045800080B483B000AF78607B6800221A607B68DB
:1045900000221A717B6800225A717B6800229A609F
:1045A0007B680022DA607B6801221A7400BF0C3736
:1045B000BD4680BC704700BF80B483B000AF786058
:1045C0000B46FB70FB78002B06D07B689B6843F0A2
:1045D00001027B689A6005E07B689B6823F001021A
:1045E0007B689A6000BF0C37BD4680BC704700BF37
:1045F00080B483B000AF78600B46FB70FB78002B73
:1046000006D07B689B6843F480727B689A6005E003
:104610007B689B6823F480727B689A6000BF0C37CC
:10462000BD4680BC704700BF80B485B000AF7860E5
:104630000B467B8013467B700023FB737B88FB73E8
:104640007B78002B06D07B685A68FB7B1A437B681B
:104650005A6006E07B685A68FB7BDB431A407B6844
:104660005A6000BF1437BD4680BC704780B483B029
:1046700000AF78607B689B6843F008027B689A60B3
:1046800000BF0C37BD4680BC704700BF80B485B00A
:1046900000AF78600023FB737B689B6803F008031E
:1046A000002B02D00123FB7301E00023FB73FB7B93
:1046B00018461437BD4680BC704700BF80B483B035
:1046C00000AF78607B689B6843F004027B689A6067
:1046D00000BF0C37BD4680BC704700BF80B485B0BA
:1046E00000AF78600023FB737B689B6803F00403D2
:1046F000002B02D00123FB7301E00023FB73FB7B43
:1047000018461437BD4680BC704700BF80B483B0E4
:1047100000AF78600B46FB70FB78002B06D07B68FF
:104720009B6843F4A0027B689A6005E07B689B6805
:1047300023F4A0027B689A6000BF0C37BD4680BCA2
:10474000704700BF80B485B000AF78600023FB7372
:104750007B689B6803F48003002B02D00123FB736A
:1047600001E00023FB73FB7B18461437BD4680BC79
:10477000704700BF80B485B000AF78600B46FB7017
:104780000023FB600023BB607B685B68FB60FB6809
:1047900023F46043FB60FB78013BBB60BB685B03B9
:1047A000FA681343FB607B68FA685A6000BF1437ED
:1047B000BD4680BC704700BF80B483B000AF786056
:1047C0000B46FB70FB78002B06D07B685B6843F4DC
:1047D00000627B685A6005E07B685B6823F40062D6
:1047E0007B685A6000BF0C37BD4680BC704700BF75
:1047F00080B485B000AF7860084611461A4603467B
:10480000FB700B46BB7013467B700023FB600023DC
:10481000BB60FB78092B23D97B68DB68FB60FB78E6
:10482000A3F10A0213465B001344072202FA03F3C2
:10483000BB60BB68DB43FA681340FB607978FB78A8
:10484000A3F10A0213465B00134401FA03F3BB60B1
:10485000FA68BB681343FB607B68FA68DA601EE0A5
:104860007B681B69FB60FA7813465B0013440722E0
:1048700002FA03F3BB60BB68DB43FA681340FB60DA
:104880007978FA7813465B00134401FA03F3BB60AE
:10489000FA68BB681343FB607B68FA681A61BB78EF
:1048A000062B21D87B685B6BFB60BB785A1E1346D6
:1048B0009B0013441F2202FA03F3BB60BB68DB4377
:1048C000FA681340FB60F978BB785A1E13469B00C8
:1048D000134401FA03F3BB60FA68BB681343FB603F
:1048E0007B68FA685A6347E0BB780C2B21D87B6859
:1048F0001B6BFB60BB78DA1F13469B0013441F221F
:1049000002FA03F3BB60BB68DB43FA681340FB6049
:10491000F978BB78DA1F13469B00134401FA03F3BE
:10492000BB60FA68BB681343FB607B68FA681A6374
:1049300022E07B68DB6AFB60BB78A3F10D021346C3
:104940009B0013441F2202FA03F3BB60BB68DB43E6
:10495000FA681340FB60F978BB78A3F10D021346A7
:104960009B00134401FA03F3BB60FA68BB6813436E
:10497000FB607B68FA68DA6200BF1437BD4680BC12
:10498000704700BF80B483B000AF78600B46FB7007
:10499000FB78002B06D07B689B6843F480127B6811
:1049A0009A6005E07B689B6823F480127B689A60BC
:1049B00000BF0C37BD4680BC704700BF80B483B0D9
:1049C00000AF78607B68DB6C9BB218460C37BD4645
:1049D00080BC704780B400AF024B1B681846BD46D0
:1049E00080BC70474C24014080B483B000AF786035
:1049F0000B46FB70FB78002B06D07B685B6843F4AA
:104A000080627B685A6005E07B685B6823F48062A3
:104A10007B685A6000BF0C37BD4680BC704700BF42
:104A200080B483B000AF78600B46FB70FB78002B3E
:104A300006D07B685B6843F480527B685A6005E06F
:104A40007B685B6823F480527B685A6000BF0C3738
:104A5000BD4680BC704700BF80B485B000AF7860B1
:104A600039600023FB607B689B68FB60FB6823F474
:104A7000E043FB60FA683B681343FB607B68FA68BD
:104A80009A6000BF1437BD4680BC704780B483B0C5
:104A900000AF78600B46FB70FB78002B06D07B687C
:104AA0009B6843F400427B689A6005E07B689B68E2
:104AB00023F400427B689A6000BF0C37BD4680BC7F
:104AC000704700BF80B483B000AF78600B46FB70C6
:104AD000FB78002B06D07B689B6843F402127B684E
:104AE0009A6005E07B689B6823F402127B689A60F9
:104AF00000BF0C37BD4680BC704700BF80B485B096
:104B000000AF78600023FB737B689B6803F400139D
:104B1000002B02D00123FB7301E00023FB73FB7B1E
:104B200018461437BD4680BC704700BF80B487B0BC
:104B300000AF7860084611461A460346FB700B46E4
:104B4000BB7013467B7000237B6100233B61002315
:104B5000FB60FB78092B23D97B68DB687B61FB78E2
:104B6000A3F10A0213465B001344072202FA03F37F
:104B70003B613B69DB437A6913407B617978FB7861
:104B8000A3F10A0213465B00134401FA03F33B61ED
:104B90007A693B6913437B617B687A69DA601EE05E
:104BA0007B681B697B61FA7813465B00134407221C
:104BB00002FA03F33B613B69DB437A6913407B6193
:104BC0007978FA7813465B00134401FA03F33B61EA
:104BD0007A693B6913437B617B687A691A617B68F8
:104BE0009B6B7B617B691B0D03F00303FB60FB6820
:104BF000DBB2BA78D31ADBB20233DBB21A46134601
:104C00009B0013441F2202FA03F33B613B69DB4321
:104C10007A6913407B61FA78FB68DBB2B978CB1A0A
:104C2000DBB20233DBB219460B469B000B4402FA9F
:104C300003F33B617A693B6913437B617B687A6963
:104C40009A6300BF1C37BD4680BC704780B485B0F6
:104C500000AF78600B46FB700023FB600023BB6055
:104C60007B689B6BFB60FB6823F44013FB60FB7865
:104C7000013BBB60BB681B05FA681343FB607B68A4
:104C8000FA689A6300BF1437BD4680BC704700BF06
:104C900080B485B000AF78600B46FB7013463B8054
:104CA0000023FB607B68FB60FA78FB681344FB60C1
:104CB000FB681A463B88136000BF1437BD4680BCB2
:104CC000704700BF80B485B000AF78600B46FB70C2
:104CD0000023FB607B68FB60FA78FB681344283391
:104CE000FB60FB681B689BB218461437BD4680BC4E
:104CF000704700BF80B485B000AF78603960002392
:104D0000FB607B685B68FB60FB6823F4400323F473
:104D10000073FB60FA683B681343FB607B68FA68CA
:104D20005A6000BF1437BD4680BC704780B483B062
:104D300000AF78600B467B8013463B807A887B68A7
:104D40005A623A887B689A6200BF0C37BD4680BCC5
:104D5000704700BF80B485B000AF78600B46FB7031
:104D60000023FB607B685B68FB60FB6823F01F032C
:104D7000FB60FB78FA681343FB607B68FA685A6053
:104D800000BF1437BD4680BC704700BF80B483B0FD
:104D900000AF0346FB71FB79002B06D0084A084B95
:104DA0009B6843F40003936005E0054A044B9B684D
:104DB00023F40003936000BF0C37BD4680BC7047EE
:104DC0000024014080B485B000AF78600B46FB70D2
:104DD0000023FB737B681A68FB781340002B02D01A
:104DE0000123FB7301E00023FB73FB7B18461437A0
:104DF000BD4680BC704700BF80B483B000AF786010
:104E00000B46FB70FB78DA437B681A6000BF0C37F7
:104E1000BD4680BC704700BF80B487B000AF7860EB
:104E20000B467B800023FB7500233B610023FB6066
:104E30007B881B0A9BB23B617B685B687A88D2B235
:104E40001340FB607B681A683B691340002B05D058
:104E5000FB68002B02D00123FB7501E00023FB75EA
:104E6000FB7D18461C37BD4680BC704780B485B0BA
:104E700000AF78600B467B800023FB737B881B0AA6
:104E80009BB2FB73FB7BDA437B681A6000BF14376D
:104E9000BD4680BC704700BF80B483B000AF0346FE
:104EA000FB71084997F907305B09FA7902F01F0294
:104EB000012000FA02F241F8232000BF0C37BD4662
:104EC00080BC704700E100E080B500AF0120FBF737
:104ED0000DFE00BF6120FBF7B1FF0346002BF9D0A8
:104EE00045F25550FCF7D6FE0420FCF7E3FE40F6F1
:104EF000FF70FCF7EFFEFCF7FDFEFCF707FF00BFBD
:104F000080BD00BF80B582B000AF01210820FBF753
:104F1000EDFE4FF4E043BB801023FB710323BB7114
:104F20003B1D19460348FBF79DF900BF0837BD46F6
:104F300080BD00BF000C014080B584B000AF0346C7
:104F4000FB800023FB6023E0FB88C3F30E039BB2CE
:104F5000002B05D001224FF480411148FBF7BAFA2B
:104F600001224FF480510E48FBF7B4FA00224FF4AF
:104F700080510B48FBF7AEFA00224FF480410848FD
:104F8000FBF7A8FAFB885B00FB80FB680133FB6042
:104F9000FB680F2BD8DD00BF1037BD4680BD00BFBA
:104FA000000C014080B586B000AFF860B9607A604F
:104FB000F968644B83FB01239A10CB17D21A13466E
:104FC0009B0013445B00CA1A01239340BB82FB6819
:104FD0005C4A82FB03129210DB17D31AFB60F9685C
:104FE000584B83FB01239A10CB17D21A13469B0010
:104FF00013445B00CA1A02F10A03012202FA03F306
:105000001AB2B7F9143013431BB2BB82FB684D4A86
:1050100082FB03129210DB17D31AFB60F968494B2D
:1050200083FB01239A10CB17D21A13469B0013441B
:105030005B00CA1A012393407B82FB68414A82FBD2
:1050400003129210DB17D31AFB60F9683D4B83FB08
:1050500001239A10CB17D21A13469B0013445B000E
:10506000CA1A02F10A03012202FA03F31AB2B7F9CB
:10507000123013431BB27B82FB68324A82FB03125D
:105080009210DB17D31AFB60F9682E4B83FB0123C8
:105090009A10CB17D21A13469B0013445B00CA1A0E
:1050A00001239340FB82FB68264A82FB0312921085
:1050B000DB17D31AFB60F968224B83FB01239A109C
:1050C000CB17D21A13469B0013445B00CA1A02F195
:1050D0000A03012202FA03F31AB2B7F91630134396
:1050E0001BB2FB82BB68002B03D0FB8A43F4005346
:1050F000FB827B68002B03D0FB8A43F48043FB8256
:10510000FB8A6FEA43436FEA5343FB82FB8A1846EC
:10511000FFF712FF7B8A1846FFF70EFFBB8A18467F
:10512000FFF70AFF01224FF400510748FBF7D2F9BD
:1051300000224FF400510448FBF7CCF900BF1837A8
:10514000BD4680BD67666666000C014080B586B0CE
:1051500000AF01214FF40070FBF7C8FD3B1D18465E
:10516000FFF70EFA00237B6000233B7200237B7263
:105170004FF46023FB6000233B6101233B753B1D23
:1051800019461248FFF7AAF901211048FFF714FA4F
:105190000523012205210D48FFF72AFB0B48FFF7E5
:1051A00065FA00BF0948FFF771FA0346002BF9D1F1
:1051B0000648FFF783FA00BF0448FFF78FFA03465B
:1051C000002BF9D100BF1837BD4680BD0024014037
:1051D00080B500AF01210848FFF798FA00BF02210F
:1051E0000548FFF7EFFD0346002BF8D00248FFF714
:1051F000E5FB0346184680BD0024014080B485B01D
:1052000000AF78600623FB60144B1A68FB689A4075
:10521000124B1B68D21A7B681A44114B1B6813444B
:105220000E4A13600D4B1B680121FA6801FA02F265
:1052300093FBF2F102FB01F29B1A094A1360074B40
:105240001A68FB6842FA03F3044A1360034B1B68B5
:1052500018461437BD4680BC704700BF8804002044
:105260008C04002080B582B000AFFFF7B1FF034689
:105270001846FFF7C3FF78604FF080727B6892FB9F
:10528000F3F3A3F5805318460837BD4680BD00BF31
:1052900080B582B000AF01210220FBF745FD01215E
:1052A0001D20FBF723FD02233B801823FB703B46A8
:1052B00019461D48FAF7D6FF0A23FB800023BB805E
:1052C0001A4B1B681A4AA2FB03235B0D9BB2013BDE
:1052D000BB80184B40F2FF329A80164ABB8813807D
:1052E000144B0022DA80134B00225A8011491248D5
:1052F000FCF748FE114B01225A80104AFB88D380EC
:105300000E490D48FDF754F808210B48FDF766FDDE
:1053100001210948FDF78CFC01210748FDF7FAF946
:1053200000BF0837BD4680BD000C014014000020BE
:10533000819F5E169C04002000040040AC04002005
:1053400080B582B000AFFFF78DFF78607B68B3F562
:10535000004F02DD47F6FF737B607B687F2B01DC2B
:1053600080237B607B689B02002B02DA03F5FF43FE
:105370007F33DB139AB2054BDA8004490448FDF70A
:1053800017F800BF0837BD4680BD00BFAC04002041
:105390000004004080B483B000AF78607B6803F005
:1053A0000F017B681A1113469B0013445B000B44EA
:1053B00018460C37BD4680BC704700BF80B483B030
:1053C00000AF78607B680C4A82FB03129210DB17F7
:1053D000D31A18017968084B83FB01239A10CB1765
:1053E000D21A13469B0013445B00CA1A831818464E
:1053F0000C37BD4680BC704767666666B0B586B040
:1054000000AF01214348FBF7F5FF01214148FBF7BD
:10541000B1FF00BF40493F48FCF716FA0346002B96
:10542000F8D00022D0213B48FCF7A8F800BF3B4948
:105430003848FCF709FA0346002BF8D0002135481C
:10544000FCF77EF800BF36493248FCF7FDF9034609
:10545000002BF8D001212F48FBF78CFF00BF2E490D
:105460002C48FCF7F1F90346002BF8D00122D0219B
:105470002848FCF783F800BF2A492648FCF7E4F9DE
:105480000346002BF8D000237B6114E000BF2649BF
:105490002048FCF7D9F90346002BF8D01D48FCF74B
:1054A0005FF8034619463A467B6913440A461A7068
:1054B0007B6901337B617B69112BE7D9002115489A
:1054C000FBF798FF01211348FBF774FF00BF164953
:1054D0001048FCF7B9F90346002BF8D00D48FCF74B
:1054E0003FF8034619463A467B6913440A461A7048
:1054F0000E4B1D463C460FCC28606960AA60EB60ED
:105500002388A2782B821346AB7400BF1837BD46A0
:10551000B0BD00BF0054004001000300820007003E
:10552000840007000200030040000300BC040020C8
:1055300080B586B000AF3B4611222749184600F0DF
:10554000B3FE01212548FBF755FF01212348FBF756
:1055500011FF00BF22492148FCF776F90346002BD2
:10556000F8D00022D0211D48FCF708F800BF1D49E3
:105570001A48FCF769F90346002BF8D000211748B8
:10558000FBF7DEFF00BF18491448FCF75DF903463E
:10559000002BF8D000237B6112E03A467B6913446C
:1055A0001B7819460D48FBF7CBFF00BF0E490B488F
:1055B000FCF74AF90346002BF8D07B6901337B6185
:1055C0007B690F2BE9D901210448FBF7F3FE00BFEB
:1055D0001837BD4680BD00BFBC0400200054004009
:1055E00001000300820007008400070080B586B038
:1055F00000AF01210820FBF779FBC023BB821C23ED
:10560000FB750323BB7507F1140319462D48FAF700
:1056100029FE01214FF40010FBF786FB0121012038
:10562000FBF764FB2848FBF741FD00233B814BF669
:10563000FF737B810123BB814FF48063FB814FF4B7
:1056400080433B82214B7B6001211F48FBF732FEE8
:105650003B1D19461C48FBF74DFD00BF4FF40031C0
:105660001948FCF743F90346002BF7D101211648EE
:10567000FBF780FE00BF16491348FCF7E5F8034628
:10568000002BF8D00022D0210F48FBF777FF00BF96
:1056900010490D48FCF7D8F80346002BF8D001213B
:1056A0000948FBF787FE00233B6002E03B680133BB
:1056B0003B603B68084A9342F8DD00BF1837BD469F
:1056C00080BD00BF000C014000540040A0860100D6
:1056D00001000300820007007F96980080B400AFAD
:1056E000034BDB7B03F080031846BD4680BC70474C
:1056F000BC04002080B500AF3220FFF75FFE0346F8
:10570000DAB2264B1A703B20FFF758FE0346DAB296
:10571000224B5A701720FFF751FE0346DAB21F4B97
:105720009A701E4B0122DA701C4B00221A711B4B1F
:1057300001225A71194B01229A71184B0022DA7119
:10574000164B00221A72154B00225A72134B01227B
:105750009A720020FFF732FE0346DAB20F4BDA727C
:105760000020FFF72BFE0346DAB20C4B1A730B4BEB
:1057700081225A73094B06229A73084B0022DA736E
:10578000064B00221A74054B00225A74034B002268
:105790009A74FFF7CDFE00BF80BD00BFBC0400209F
:1057A00098B500AF0E4B1B781846FFF7F3FD044683
:1057B0000B4B5B781846FFF7EDFD0246642303FBB5
:1057C00002F31C44064B9B781846FFF7E3FD0246A4
:1057D00042F2107303FB02F32344184698BD00BF46
:1057E000BC04002098B500AF0A4BDB7A1846FFF7DF
:1057F000D1FD0246642303FB02F4064B1B7B1846D3
:10580000FFF7C8FD024642F2107303FB02F3234484
:10581000184698BDBC04002080B582B000AF786007
:1058200039600E4BDB7B03F00A03002B12D07A6841
:105830003B68D31A642B04DC3A687B68D31A642B68
:1058400008DD064BDB7B23F00203DAB2034BDA738D
:10585000FFF76EFE00BF0837BD4680BDBC040020C8
:1058600080B582B000AF01210420FBF73FFA072387
:10587000BB802823FB710223BB713B1D19460348E3
:10588000FAF7F0FC00BF0837BD4680BD00080140B4
:1058900080B582B000AF01210820FBF727FA202352
:1058A000BB802823FB710223BB713B1D19460348B3
:1058B000FAF7D8FC00BF0837BD4680BD000C014098
:1058C00080B500AF20210348FAF79CFD0346184637
:1058D00080BD00BF000C014080B584B000AF012145
:1058E0000420FBF721FA3B1D1846FCF7A1FE00231C
:1058F000FB804FF4FA53BB804FF47A733B813B1D1E
:1059000019460E48FCF73EFB012201210B48FCF72B
:1059100047FF01210948FCF7FDFE1E233B700023D1
:105920007B700023BB700123FB703B461846FBF7DE
:1059300009FB00BF1037BD4680BD00BF0008004016
:1059400080B582B000AF0D4B5B781846FFF722FDA3
:1059500078607B683A2B02DD00237B6002E07B6885
:1059600001337B607868FFF729FD0346DAB2034B09
:105970005A7000BF0837BD4680BD00BFBC04002080
:1059800080B582B000AF0D4B9B781846FFF702FD43
:1059900078607B68162B02DD00237B6002E07B6869
:1059A00001337B607868FFF709FD0346DAB2034BE9
:1059B0009A7000BF0837BD4680BD00BFBC04002000
:1059C00080B582B000AF0D4BDB7A1846FFF7E2FCE2
:1059D00078607B683A2B02DD00237B6002E07B6805
:1059E00001337B607868FFF7E9FC0346DAB2034BCA
:1059F000DA7200BF0837BD4680BD00BFBC0400207E
:105A000080B582B000AF0D4B1B7B1846FFF7C2FC80
:105A100078607B68162B02DD00237B6002E07B68E8
:105A200001337B607868FFF7C9FC0346DAB2034BA9
:105A30001A7300BF0837BD4680BD00BFBC040020FC
:105A400080B588B000AF7860012144F20400FBF714
:105A50004DF94FF40073BB830323BB771823FB7707
:105A600007F11C0319461A48FAF7FCFB4FF4806350
:105A7000BB830323BB770423FB7707F11C03194681
:105A80001348FAF7EFFB7B68FB6000233B830C2392
:105A9000FB820023BB8200237B8200233B8207F131
:105AA0000C0319460B48FEF7B9F801210948FEF727
:105AB000CDF92520FFF7F0F9064A064B9B899BB2EA
:105AC00043F020039BB2938100BF2037BD4680BDC9
:105AD000000801400038014080B483B000AF0346A5
